:020000040008F2
:0400000000481A7E1C
:20000400761BFFF0E20000BDE63006002942561676256F00761BFFF0E20000BDE630060085
:200014002942561676256F00761BFFF0E20000BDE63006002942561676256F00761BFFF04F
:20002400E20000BDE63006002942561676256F00761BFFF0E20000BDE6300600294256160E
:2000340076256F00761BFFF0E20000BDE63006002942561676256F00761BFFF0E20000BD67
:20004400E63006002942561676256F00761BFFF0E20000BDE63006002942561676256F0083
:20005400761BFFF0E20000BDE63006002942561676256F00761BFFF0E20000BDE630060035
:200064002942561676256F00761BFFF0E20000BDE63006002942561676256F00761BFFF0FF
:20007400E20000BDE63006002942561676256F00761BFFF0E20000BDE630060029425616BE
:2000840076256F00761BFFF0E20000BDE63006002942561676256F00761BFFF0E20000BD17
:20009400E63006002942561676256F00761BFFF0E20000BDE63006002942561676256F0033
:2000A400761BFFF0E20000BDE63006002942561676256F00761BFFF0E20000BDE6300600E5
:2000B4002942561676256F00761BFFF0E20000BDE63006002942561676256F00761BFFF0AF
:2000C400E20000BDE63006002942561676256F00761BFFF0E20000BDE6300600294256166E
:2000D40076256F00761BFFF0E20000BDE63006002942561676256F00761BFFF0E20000BDC7
:2000E400E63006002942561676256F00761BFFF0E20000BDE63006002942561676256F00E3
:2000F400761BFFF0E20000BDE63006002942561676256F00761BFFF0E20000BDE630060095
:200104002942561676256F00761BFFF0E20000BDE63006002942561676256F00761BFFF05E
:20011400E20000BDE63006002942561676256F00761BFFF0E20000BDE6300600294256161D
:2001240076256F00761BFFF0E20000BDE63006002942561676256F00761BFFF0E20000BD76
:20013400E63006002942561676256F00761BFFF0E20000BDE63006002942561676256F0092
:20014400761BFFF0E20000BDE63006002942561676256F00761BFFF0E20000BDE630060044
:200154002942561676256F00761BFFF0E20000BDE63006002942561676256F00761BFFF00E
:20016400E20000BDE63006002942561676256F00761BFFF0E20000BDE630060029425616CD
:2001740076256F00761BFFF0E20000BDE63006002942561676256F00761BFFF0E20000BD26
:20018400E63006002942561676256F00761BFFF0E20000BDE63006002942561676256F0042
:20019400761BFFF0E20000BDE63006002942561676256F00761BFFF0E20000BDE6300600F4
:2001A4002942561676256F00761BFFF0E20000BDE63006002942561676256F00761BFFF0BE
:2001B400E20000BDE63006002942561676256F00761BFFF0E20000BDE6300600294256167D
:2001C40076256F00761BFFF0E20000BDE63006002942561676256F00761BFFF0E20000BDD6
:2001D400E63006002942561676256F00761BFFF0E20000BDE63006002942561676256F00F2
:2001E400761BFFF0E20000BDE63006002942561676256F00761BFFF0E20000BDE6300600A4
:2001F4002942561676256F00761BFFF0E20000BDE63006002942561676256F00761BFFF06E
:20020400E20000BDE63006002942561676256F00761BFFF0E20000BDE6300600294256162C
:2002140076256F00761BFFF0E20000BDE63006002942561676256F00761BFFF0E20000BD85
:20022400E63006002942561676256F00761BFFF0E20000BDE63006002942561676256F00A1
:20023400761BFFF0E20000BDE63006002942561676256F00761BFFF0E20000BDE630060053
:200244002942561676256F00761BFFF0E20000BDE63006002942561676256F00761BFFF01D
:20025400E20000BDE63006002942561676256F00761BFFF0E20000BDE630060029425616DC
:2002640076256F00761BFFF0E20000BDE63006002942561676256F00761BFFF0E20000BD35
:20027400E63006002942561676256F00761BFFF0E20000BDE63006002942561676256F0051
:20028400761BFFF0E20000BDE63006002942561676256F00761BFFF0E20000BDE630060003
:200294002942561676256F00761BFFF0E20000BDE63006002942561676256F00761BFFF0CD
:2002A400E20000BDE63006002942561676256F00761BFFF0E20000BDE6300600294256168C
:2002B40076256F00761BFFF0E20000BDE63006002942561676256F00761BFFF0E20000BDE5
:2002C400E63006002942561676256F00761BFFF0E20000BDE63006002942561676256F0001
:2002D400761BFFF0E20000BDE63006002942561676256F00761BFFF0E20000BDE6300600B3
:2002E4002942561676256F00761BFFF0E20000BDE63006002942561676256F00761BFFF07D
:2002F400E20000BDE63006002942561676256F00761BFFF0E20000BDE6300600294256163C
:2003040076256F00761BFFF0E20000BDE63006002942561676256F00761BFFF0E20000BD94
:20031400E63006002942561676256F00761BFFF0E20000BDE63006002942561676256F00B0
:20032400761BFFF0E20000BDE63006002942561676256F00761BFFF0E20000BDE630060062
:200334002942561676256F00761BFFF0E20000BDE63006002942561676256F00761BFFF02C
:20034400E20000BDE63006002942561676256F00761BFFF0E20000BDE630060029425616EB
:2003540076256F00761BFFF0E20000BDE63006002942561676256F00761BFFF0E20000BD44
:20036400E63006002942561676256F00761BFFF0E20000BDE63006002942561676256F0060
:20037400761BFFF0E20000BDE63006002942561676256F00761BFFF0E20000BDE630060012
:200384002942561676256F00761BFFF0E20000BDE63006002942561676256F00761BFFF0DC
:20039400E20000BDE63006002942561676256F00761BFFF0E20000BDE6300600294256169B
:2003A40076256F00761BFFF0E20000BDE63006002942561676256F00761BFFF0E20000BDF4
:2003B400E63006002942561676256F00761BFFF0E20000BDE63006002942561676256F0010
:2003C400761BFFF0E20000BDE63006002942561676256F00761BFFF0E20000BDE6300600C2
:2003D4002942561676256F00761BFFF0E20000BDE63006002942561676256F00761BFFF08C
:2003E400E20000BDE63006002942561676256F00761BFFF0E20000BDE6300600294256164B
:2003F40076256F00761BFFF0E20000BDE63006002942561676256F00761BFFF0E20000BDA4
:20040400E63006002942561676256F00761BFFF0E20000BDE63006002942561676256F00BF
:20041400761BFFF0E20000BDE63006002942561676256F00761BFFF0E20000BDE630060071
:200424002942561676256F00761BFFF0E20000BDE63006002942561676256F00761BFFF03B
:20043400E20000BDE63006002942561676256F00761BFFF0E20000BDE630060029425616FA
:2004440076256F00761BFFF0E20000BDE63006002942561676256F00761BFFF0E20000BD53
:20045400E63006002942561676256F00761BFFF0E20000BDE63006002942561676256F006F
:20046400761BFFF0E20000BDE63006002942561676256F00761BFFF0E20000BDE630060021
:200474002942561676256F00761BFFF0E20000BDE63006002942561676256F00761BFFF0EB
:20048400E20000BDE63006002942561676256F00761BFFF0E20000BDE630060029425616AA
:2004940076256F00761BFFF0E20000BDE63006002942561676256F00761BFFF0E20000BD03
:2004A400E63006002942561676256F00761BFFF0E20000BDE63006002942561676256F001F
:2004B400761BFFF0E20000BDE63006002942561676256F00761BFFF0E20000BDE6300600D1
:2004C4002942561676256F00761BFFF0E20000BDE63006002942561676256F00761BFFF09B
:2004D400E20000BDE63006002942561676256F00761BFFF0E20000BDE6300600294256165A
:2004E40076256F00761BFFF0E20000BDE63006002942561676256F00761BFFF0E20000BDB3
:2004F400E63006002942561676256F00761BFFF0E20000BDE63006002942561676256F00CF
:20050400761BFFF0E20000BDE63006002942561676256F00761BFFF0E20000BDE630060080
:200514002942561676256F00761BFFF0E20000BDE63006002942561676256F00761BFFF04A
:20052400E20000BDE63006002942561676256F00761BFFF0E20000BDE63006002942561609
:2005340076256F00761BFFF0E20000BDE63006002942561676256F00761BFFF0E20000BD62
:20054400E63006002942561676256F00761BFFF0E20000BDE63006002942561676256F007E
:20055400761BFFF0E20000BDE63006002942561676256F00761BFFF0E20000BDE630060030
:200564002942561676256F00761BFFF0E20000BDE63006002942561676256F00761BFFF0FA
:20057400E20000BDE630060029425616E28000BEFFF176177602761BFFF0E20000BDE6308B
:2005840006002942561676256F007648066C7622FF6976481582761F1740CC0800C0FFC5A7
:200594006007761F17460636600376480A16761A9A01D400D5019B14FF697648067A76C70A
:2005A40002823E67764805A900067622761F174C1A2200011A2200041A2200081A220010FF
:2005B4001A2200201A2300011A2300041A2400011A2400021A2600011A2600021A26000406
:2005C4001A2600081A2600101A2600201A2600401A2600801A2601001A2602001A26040018
:2005D4001A2608001A2800011A2800021A2800041A2800081A2800101A2800201A2A0001AF
:2005E4001A2A00021A2A00041A2E00011A2E00021A3000011A3000021A3000041A3000089F
:2005F4001A3200011A3200021A3200041A3400011A3400021A3600011A3600021A38000167
:200604001A3800021A3900011A3A00011A3C00011A3C00021A3C00041A3C00081A3E000119
:200614001A3E00021A3E00041A3E00081A3E00101A3E00201A3E00401A3E0080761F174D67
:200624001A0300011A0300021A030004761AFF69000676220200761F174C1E221E241E2602
:200634001E281E2A1E2E1E301E321E341E361E381E3A1E3C1E3E761F174D1E02761AFF6913
:20064400000676226F059A0228A85A5A1E24761F140092249003520260F7761AFF69000687
:2006540076229A0028A85A5A761F14001E24761AFF6900067622761F01C0CC25FF00505564
:200664009625CC25FF0050AA9625761AFF690006FE027622761F01C092299007964192412E
:2006740050689629761AFF69FE820006FE207D527C519750964F56BF015F761F1748884FAB
:20068400920890030EA90FA6601588509214907F0EA90FA6600F8851CC140300FFC70EA9A7
:200694000FA6600888529222903F0EA90FA6FFE101CA884F920890030EA90FA661116F0A5A
:2006A400764809786F0D764809886F0A7648099C6F07924F61F9520161FA520261F27622B2
:2006B400761F174888509214907F0EA90FA660088851CC140300FFC70EA90FA66123761FCA
:2006C4001744922C761F1748180EFFFDF67877001822FFC02B60926052056714761F1748C6
:2006D400180EFFFEF614770056030851CA500EA91E1492169001520160FD0A609260520511
:2006E40068EE9252523F61089C01CD22FFC0903FCAA896226F06CD22FFC0903FCAA8962262
:2006F400761F01C09222965392299654922A965576222B2ACC25FF0050559625CC25FF007A
:2007040050AA962576083B3092BE96562B2256BF2829761F17441A2C0001761F17481A0EF5
:200714000002F6147700FF697648065E7622925F5201FFE001208F000800761F1748CC166F
:200724000002FFC052016016180EFFFDF6787700180EFFFEF614770056030851CA500EA9FD
:200734001E1492169001520160FD1A0E0002F6147700761F0030920C9657060A1E44920E7D
:200744009658920F9659761F174D923C9007965DCC3C0038FFC2965E761F00309214965A76
:2007540006121E469216965B9217965C761F00301A0C00103B01FF2FE0001E0A180EFF0043
:200764001A0C00201A0C80001A0C40006F16761F174DCC3CFFF85001963C6F15761F174D06
:20077400CC3CFFF85002963C6F0E761F174DCC3CFFF85003963C6F07924F61F1520161F655
:20078400520261E6761F00301A1480001A1440001A140010A8121816FF001A140020761FD1
:2007940000301A0C0010761F00301A140010761F00301A0C0020761F00301A1400201A1490
:2007A40080001814FFEF761F0030180CFFEF761F00304F146D05761F00304F0C6CF9761F10
:2007B40000301A0C0010761F00301A1400103B01FF2FE000761F003003081E489257960CB1
:2007C40006441E0A9258960E9259960F925D761F174D9007CD3CFFF8CAA8963C925E90073B
:2007D400FF82CD3CFFC7CAA8963C925A761F0030961406461E12925B9616925C9617E2C4C0
:2007E40001517700E8020400E274000977007700E2C403507700E71000C87700E203004C1A
:2007F400761F17489222903F60039A016F059222903F560301A985A9BDA90F1277007700D3
:2008040077007700E68900007700E203004EE2840148E2AF034CE2AF024EE8022800E274F5
:200814000008E27400997700770077007700E72000087700E203004A9B009A01E801EE60CF
:20082400E2AF014AE80E6668E6940001AD14620AE805EE60E80E6668E6940001AD146402CB
:200834009A00520061029B01975F925F5201FFE1FEE6761F1744182CFFFE761F01C0CC2543
:20084400FF0050559625CC25FF0050AA96251A540028925496299255962ACC53FFFE9622DA
:2008540040566D02291041566D022920F6C87700761F17489252CD22FFC0903FCAA8962243
:20086400761AFEA0FF690006FE107D467C45974496432B482B49761F17488843920A9003BD
:200874000EA90FA6601F8844921E907F0EA90FA660198845CC1E0300FFC70EA90FA66012AB
:200884008846922490030EA90FA6FFE100CB6F0A764809AC6F0D764809B66F0A764809C23F
:200894006F07924361F6520161F7520461F87622761F17481818FFFD761AF6787700761F86
:2008A400174D923C9007964DCC3C0038FFC2964E761F00309214964A06121E429216964B57
:2008B4009217964C7622761F174DCC3CFFF85006963C183CFFC7761F00301A140010020AB8
:2008C4001E122B162B171814BFFF761F17481A240003761A6F347622761F17481818FFFE56
:2008D400F614770056030845CA440EA91E1E1A180001761A92209001520160FD76221A185C
:2008E4000002F6147700761F00301A1400201814FFEF2B471B4703E8670E761F00304F14E8
:2008F4006C061A14800056BF01496F050A471B4703E868F41A1400100A48761A92485205A6
:200904006703924961C99249600876220200761F17481E1E761A76252B4F6F197622181862
:20091400FFFDF67877001818FFFEF614770056030845CA440EA91E1E92209001520160FD9A
:200924001A180002F61477000A4F761A761F174841206C04924F520A68E276229246CD2468
:20093400FFFC9003CAA89624761F174D924D9007CD3CFFF8CAA8963C924E9007FF82CD3C35
:20094400FFC7CAA8963C924A761F0030961406421E12924B9616924C96171A140020761AD4
:20095400FE90FF69000676220200761F17C019011E10020019011E12020019011E1402009D
:2009640019011E160200761F17C119011E10020019011E12020019011E14020019011E1684
:20097400761A9A00FF6900067622761F1748CC08FFFC50029608F6FA7700F63277001A0858
:200984000010761AFF6900067622761F17481808FFF7F6FA7700F63277001808FFFCF6FA92
:200994007700F63277001A080010761AFF6900067622761F17481808FFEFF6FA7700F632D4
:2009A4007700CC08FFFC50019608761AFF6900067622761F17481808FFF7180AFFFC761AB1
:2009B400FF6900067622761F17481808FFEFCC0AFFFC5001960A761AFF6900067622761F2E
:2009C4001748CC0AFFFC5002960A761AFF6900067622761F174D1836FFFC761A7621FF698A
:2009D40000067622761F174DCC36FFFC50019636761A7621FF6900067622761F174DCC362A
:2009E400FFFC50029636761A761F174492259003520160FB7622761F1748180EFFFD180E8E
:2009F400FFFE761A7621FF6900067622761F174D1A360003761A761F17449225900360053E
:200A040092249001520161F8FF697648062D7622761F1748180EFFFD180EFFFE761A76218E
:200A1400FF690006761F174C1A3C00011A3C00021A3C00041A3C00088F007BDD761F17461C
:200A2400A836A838A83AA83C761F174C183CFFFE183CFFFD183CFFFB183CFFF70006FE02F7
:200A3400E2030042E27100007700E27800007700FE820006FE14E20300441E4AA048A846E1
:200A4400E2AF0144E2AF00C4E6940001AD14620702001E52E590E203004C6F56064AFF3066
:200A540007468AA9E2AF00C4E6940001AD146345064A2901FF401E5002001E52064A1E546E
:200A6400BE0129016F140650FF3007468AA9E2AF00C4E6940001AD14630406501E546F03CF
:200A740006501E5206520754FF401E50065403520FA666EA0652FF3007468AA90201E2AFED
:200A840000C40752FF3007468AA90652E2AF01C4FF3007468AA9E2AF0244E32041C4E72043
:200A9400005177007700E27400087700770077007700E203004C6F08064A19011E52E8015E
:200AA400FC00E203004C0652FF3007488AA906C41E4E02010752FF3007488AA9E2AF004EDA
:200AB400E2AF01C4E7200008E2AF034CE7000018E2AF024EE7100080FE940006E20304BD48
:200AC400E20305BDE20306BDFE06761F0381E2AF003276480A338F00E01202028F40E000B4
:200AD400E6CF0006E2C40038761F0380E2AF0130E2AF0528E300442A76480A3EE700012969
:200AE4007700E70000717700E6940001AD146405761F0381920C6F029A0096430E431E46B7
:200AF400761F01010E231E42064676481D70BDA90F16770077007700E801E118E6890009D9
:200B0400E80EB850E70000407700E68E0000761F0101E213002B761F0381E8020030E808E7
:200B14005490E2AF0134E720000876480A338F00E0188F40E0060202E6CF0006E2C4003933
:200B2400761F0380E2AF013AE2AF0532E300443476480A3EE70001297700E700007177004D
:200B3400E6940001AD146405761F0381920D6F029A0096430E431E46761F01050E231E427F
:200B4400064676481D70BDA90F16770077007700E801E118E6890009E80EB850E70000408B
:200B54007700E68E0000761F0105E213002B761F0381E8020030E8085490E2AF0136E71015
:200B6400004076480A338F00E01E8F40E00C0202E6CF0006E2C4003A761F0381E2AF0104A0
:200B7400761F0380E2AF053CE300443E76480A3EE70001297700E70000717700E69400013A
:200B8400AD146405761F0381920E6F029A0096430E431E46761F01090E231E42064676489B
:200B94001D70BDA90F16770077007700E801E118E6890009E80EB850E70000407700E68E5A
:200BA4000000761F0109E213002B761F03819215761F0381943A90FF963A761F038092249E
:200BB400761F0381543A6707761F03819211761F0381963A761F03819216761F03819439C0
:200BC40090FF9639761F03809225761F038154396707761F0381920F761F03819639761F99
:200BD40003819217761F0381943890FF9638761F03809226761F038154386707761F038196
:200BE4009210761F03819638761F0381E2AF000A761F0380E2AF0128E300462C761F038174
:200BF400E7000031E2AF0532E71001487700E2030032761F0381E2AF0008761F0380E2AFD8
:200C04000132E3004436761F0381E7000021E2AF0334E71000C87700E2030034761F0381EF
:200C1400E2AF0006761F0380E2AF013C761F0381E3004200761F0381E7000011E2AF063627
:200C2400E71001887700E2030036FE86E2AF06BEE2AF05BEE2AF04BE0006761F20728A184F
:200C340002001EC48F00E072F6092B84761F0100CC00C0005032960018010FFF761F010135
:200C440028230D05062091001E20761F01002B041808C3A01809C3A0761F0101282B068200
:200C5400282D7D00282F7D0028317D0056BF900056BF60021807FF3F1809FFF0761F0100E5
:200C6400CC0C7000500B960C761F0101CC11C0001AA901909611CC13C0001AA90190961360
:200C7400761F0102922490801AA910019624CC26FFCF50309626CC30F0F01AA90101963011
:200C8400CC2EFFF05001962E761F01001814F8007622761F01022B00CC04F0001AA90FFFAC
:200C94009604180DFF81761F0103CC03FCF0500496031804FCF09A001AA910109300960012
:200CA400761F01021802F000761F0103CC07FFC0501096072B092B0B1808FFFE761F010049
:200CB4001820FF5F1838FFF01838FF0F1838F0FF18380FFF1839FFF0182DFF8D761A761F1A
:200CC4000104CC00C0005032960018010FFF761F010528230D05062091001E20761F0104B9
:200CD4002B041808C3A01809C3A0761F0105282B0682282D7D00282F7D0028317D0056BFC3
:200CE400900056BF60021807FF3F1809FFF0761F0104CC0C7000500B960C761F0105CC1125
:200CF400C0001AA901909611CC13C0001AA901909613761F0106922490801AA91001962499
:200D0400CC26FFCF50309626CC30F0F01AA901019630CC2EFFF05001962E761F01041814A8
:200D1400F8007622761F01062B00CC04F0001AA90FFF9604180DFF81761F0107CC03FCF040
:200D2400500496031804FCF09A001AA9101093009600761F01061802F000761F0107CC07FE
:200D3400FFC0501096072B092B0B1808FFFE761F01041820FF5FCC38FFF050019638CC3816
:200D4400FF0F50109638CC38F0FF1AA901009638CC380FFF1AA910009638CC39FFF05001D6
:200D54009639182DFF8D761A761F0108CC00C0005032960018010FFF761F010928230D05EA
:200D6400062091001E20761F01082B041808C3A01809C3A0761F0109282B0682282D7D005A
:200D7400282F7D0028317D0056BF900056BF60021807FF3F1809FFF0761F0108CC0C700046
:200D8400500B960C761F0109CC11C0001AA901909611CC13C0001AA901909613761F010ADF
:200D9400922490801AA910019624CC26FFCF50309626CC30F0F01AA901019630CC2EFFF09F
:200DA4005001962E761F01081814F8007622761F010A2B00CC04F0001AA90FFF9604180DA5
:200DB400FF81761F010BCC03FCF0500496031804FCF09A001AA9101093009600761F010A08
:200DC4001802F000761F010BCC07FFC0501096072B092B0B1808FFFE761F01081820FF5F1A
:200DD400CC38FFF050029638CC38FF0F50209638CC38F0FF1AA902009638CC380FFF1AA941
:200DE40020009638CC39FFF050029639182DFF8D761A761F0380062E761F03811E32761F41
:200DF40003819212761F03819638761F03800638761F03811E34761F03819213761F038138
:200E04009639761F03810602761F03811E36761F03819214761F0381963AFF690006000655
:200E1400FE067D451E44A842761F1400CE08CF09FF58610456BF01466F0C92455201600434
:200E2400061696C46F055202600306161EC42B469246FE860006FE047C431E42761F140072
:200E3400064ACA42CB41CE08CF09FF58610456BF01446F1292435201600402071E106F05BA
:200E44005202600302081E1006481E12064ACA42CB411E042B449244FE840006FE047C4309
:200E54001E42761F1400064CCA42CB41CE08CF09FF58610456BF01446F199243520160092E
:200E640002011E1006481E12064A91001E146F095202600702021E1006481E12064A1E1447
:200E7400064CCA42CB411E042B449244FE840006FE047C431E42761F1400064CCA42CB41D1
:200E8400CE08CF09FF58610456BF01446F1992435201600902091E1006481E12064A9100D9
:200E94001E146F0952026007020A1E1006481E12064A1E14064CCA42CB411E042B449244CE
:200EA400FE840006FE047C431E42761F1400064CCA42CB41CE08CF09FF58610456BF0144AE
:200EB4006F1992435201600902031E1006481E12064A91001E146F095202600702041E10DA
:200EC40006481E12064A1E14064CCA42CB411E042B449244FE840006FE047C431E42761FFF
:200ED4001400064CCA42CB41CE08CF09FF58610456BF01446F19924352016009020B1E1068
:200EE40006481E12064A91001E146F0952026007020C1E1006481E12064A1E14064CCA4290
:200EF400CB411E042B449244FE840006FE047C431E42761F1400064CCA42CB41CE08CF0901
:200F0400FF58610456BF01446F1492435201600402051E106F055202600302061E100648C4
:200F14001E12064A1E14064CCA42CB411E042B449244FE840006FE047C431E42761F1400E8
:200F2400064CCA42CB41CE08CF09FF58610456BF01446F14924352016004020D1E106F05BF
:200F340052026003020E1E1006481E12064A1E14064CCA42CB411E042B449244FE8400064F
:200F4400FE041E42761F1400064CCA42CB41CE08CF09FF58610456BF01436F0C02121E1098
:200F540006481E12064A1E14064CCA42CB411E042B439243FE840006FE0C7C4B1E488F055B
:200F6400F444A84A924B600D064A1E42D40206501E4406521E46064876480E7C964C6F0E0A
:200F74005201600C064A1E42D40206501E4406521E46064876480ED0964C924CFE8C00066A
:200F8400FE061E420642761F1400CE02CF03FF5861FA02070F18600B061A1E468A460EC4E3
:200F94001E1E064ACA42CB411E006F1002080F18600B061A1E448A4406C41E1E064ACA42AE
:200FA400CB411E006F0306421E00FE860006FE061E420642761F1400CE02CF03FF5861FAF8
:200FB40002010F18600E061A1E448A44061C98C48A440EC41E1E064ACA42CB411E006F14D2
:200FC40002020F18600F061A1E468A46061C98C499CC8A4606C41E1E064ACA42CB411E00E0
:200FD4006F0306421E00FE860006FE061E420642761F1400CE02CF03FF5861FA762202094F
:200FE4000F18600E061A1E448A44061C98C48A440EC41E1E064ACA42CB411E006F14020A99
:200FF4000F18600F061A1E468A46061C98C499CC8A4606C41E1E064ACA42CB411E006F0342
:2010040006421E00761AFE86FF690006FE061E420642761F1400CE02CF03FF5861FA020336
:201014000F18600F061A1E448A44061CFF5EC0C48A440EC41E1E064ACA42CB411E006F15ED
:2010240002040F186010061A1E468A46061CFF55C0C4C1CC8A4606C41E1E064ACA42CB41F6
:201034001E006F0306421E00FE860006FE061E420642761F1400CE02CF03FF5861FA7622DB
:20104400020B0F18600F061A1E448A44061CFF5EC0C48A440EC41E1E064ACA42CB411E0034
:201054006F15020C0F186010061A1E468A46061CFF55C0C4C1CC8A4606C41E1E064ACA4246
:20106400CB411E006F0306421E00761AFE86FF690006FE061E420642761F1400CE02CF03F1
:20107400FF5861FA02050F18600E061A1E468A46061C96C48A460EC41E1E064ACA42CB41F8
:201084001E006F1302060F18600E061A1E448A44061C1EC48A4406C41E1E064ACA42CB417F
:201094001E006F0306421E00FE860006FE061E420642761F1400CE02CF03FF5861FA76227B
:2010A400020D0F18600E061A1E468A46061C96C48A460EC41E1E064ACA42CB411E006F13D2
:2010B400020E0F18600E061A1E448A44061C1EC48A4406C41E1E064ACA42CB411E006F0357
:2010C40006421E00761AFE86FF690006FE041E420642761F1400CE02CF03FF5861FA021269
:2010D4000F18600E061A1E44C544061C3E67761F14001E1E0648CA42CB411E006F030642F2
:2010E4001E00FE84000677007700770077007700FF6900068F4080008F008000A0A9564147
:2010F40000A4A8A98F00800076481A3228A9003F28A800008F481A988F00800076481A324C
:20110400764080000006FE0802001E441E461E4876228F0815CD761F0038A80802151E4652
:20111400021C0F46690E5C460201DC8C2DA4563B98489947020107461E46021C0F4666F421
:20112400021A1E460F46690E5C460201DC8C2DA4563B98489947020107461E46021A0F460B
:2011340066F40648761F17D198049905761A8F03FFF0A84283428F081196A8C583428F007D
:20114400E084A8D583428F00E086A8E583428F0811E9A8F5020807428AA98F481252A0C44B
:20115400020A07428AA98F4812BFA0C4020C07428AA98F481317A0C4020E07428AA98F4895
:20116400136AA0C4761F00331A2210007623000129102920BE026F04020107441E44761FE2
:20117400140006209B00900F0FA66105FF2002BC0F4466F3020B1E2202131E109A0128A848
:2011840080001E0402001E448F0001F4A8A90F446907020107441E44A8A90F4466FBFE8872
:20119400FF690006FE021E4228AC0018BE03900018A8FF0056220FA66025184100FFCC4259
:2011A40000FF290188A9064218A9FF009100FF475CA99B0392A6764813C9CC4200FF80A947
:2011B40028AC0018064291FF0EA888A90642900018A8FF0056225CA993A692A776481455C3
:2011C4006F22CC4200FF88A92901064218A9FF009100FF475CA99B0292A6764813C9CC42B1
:2011D40000FF80A928AC0018064291FF0EA888A90642900018A8FF0056225CA993A692A7A2
:2011E400764814550201FE820006FE041E42924290FF964376226F479243761F01E496006A
:2011F4006F599243761F01E496016F549243761F01E496026F4F9243761F01E496036F4A24
:201204009243761F01E496046F459243761F01E496056F409243761F01E496066F3B92432A
:20121400761F01E496076F369243761F01E496086F319243761F01E496096F2C9243761F7E
:2012240001E4960A6F279243761F01E4960B6F229243761F01E4960C6F1D9243761F01E442
:20123400960D6F1806422901BE0D18A9FF009100FF471EA719010FA6660D06A776C81D5439
:20124400FF301902560100A724A9DF0124A81EA77620761A0201FE84FF690006FE101E427D
:2012540028AC001C900018A8F0005622964B28AC00180642900018A80F005622964C0642BC
:2012640091FF974D2901064218A9FF009100FF47964E924290FF964F924E900F96508F00CD
:201274007A805603014F9CFE560301A9560100A4924EFFC3560301A907A41E46924F9CFFEF
:201284008F007AA0560301A907A41E448F007AB6A8488F007AB8A84A76222BAAFF69924D7B
:20129400900327A98A465603015016A9563BFF5A92AB98C492AA98CC8A4402012D4E563B9E
:2012A40098C499CC5C4F924B83489001DC810EA92DA4563B98C599CD5C4F924C9001834A65
:2012B400DC810EA92DA4563B98C599CD761A0201FF69FE900006FE0E1E4228AC001890006A
:2012C40018A80F0056229649064291FF974A2901064218A9FF009100FF47964B924290FFDE
:2012D400964C924B900F964D8F007A005603014C9CFE560301A9560100A4924BFFC356037A
:2012E40001A907A41E46924C9CFF8F007A20560301A907A41E448F007A38A84876222BAAE1
:2012F400FF69924A900327A98A465603014D16A9563BFF5A92AB98C492AA98CC8A44020109
:201304002D4B563B98C499CC5C4C924983489001DC810EA92DA4563B98C599CD761A020154
:20131400FF69FE8E0006FE0E1E4228AC0018900018A80F0056229649064291FF974A2901CE
:20132400064218A9FF009100FF47964B924290FF964C924B900F964D8F007A405603014C56
:20133400560301A9560100A4924BFFC3560301A907A41E465603014C8F007A6007A41E44CE
:201344008F007A78A84876222BAAFF69924A900327A98A465603014D16A9563BFF5A92ABA7
:2013540098C492AA98CC8A4402012D4B563B98C499CC924990018A482D4C0EA9563B98C487
:2013640099CC761A0201FF69FE8E0006FE061E42924290FF96452901064218A9FF00910012
:20137400FF4796468F007940A84476222D4635031EA692452DA690070EA9563B98C499CCB2
:20138400761A0201FF69FE860006FE0476220200761F01F01E3C761F01F11E3C761F01F2DF
:201394001E3C761F01F31E3C761F01F41E3C761F01F51E3C8F007C00A8422B43924352C0E9
:2013A400670F2901BE00901F520661065603014307428AA9C2C40A43924352C068F58F009E
:2013B4007F00A8422B4392435218670C2901BE005603014307428AA9C2C40A43924352187D
:2013C40068F8761AFE84FF690006FE0E7C4B974A9649901F964C9249900F964D9249900736
:2013D400964E29018F007C009249FFC4FF84560301A9560100A4A842924A52036670924BF3
:2013E400520F69026F6C924CFFC3560301A9074209061E44924CFFC3560301A907420920D0
:2013F4001E46924CFFC2560301A9074209281E487622FF6902038A44FF5A5603014D16A961
:20140400563BFF55FF5A92ABC0C492AAC0CC0203FF5A8A465603014D16A9563BFF55FF5A2F
:2014140092ABC0C492AAC0CC0203FF5A924BFFC188A98A46A9A989A6FF5A5603014D16A9F3
:20142400563BFF5A92AB98C492AA98CC0203894B8A44FF5A5603014D16A9563BFF5A92ABF8
:2014340098C492AA98CC0203FF5A8A485603024E16A9563BFF55FF5A92ABC0C492AAC0CC3D
:201444000203894A8A48FF5A5603024E16A9563BFF5A92AB98C492AA98CC761AFE8EFF6976
:201454000006FE187C5797569655901F0EA91E4E9255900F0EA91E502D4E0201563B1E52B5
:2014640029018F007C009255FFC4FF84560301A9560100A4A842020A07421E44020C074210
:201474001E46021007421E48021207421E4A064EFF43FF30074209021E4C76228A4406522D
:20148400FF55C0C4C1CC92565201601F8A44065298C499CC42576C068A4A065298C499CC4A
:201494006F068A4A0652FF55C0C4C1CC9257900561078A460652FF55C0C4C1CC6F238A465D
:2014A400065298C499CC6F1E8A440652FF55C0C4C1CC40576C078A460652FF55C0C4C1CC60
:2014B4006F058A46065298C499CC41576C068A48065298C499CC6F068A480652FF55C0C44F
:2014C400C1CC92579030FFC30EA91E54FF6902038A4CFF5A5603015016A9563BFF55FF5AA4
:2014D40092ABC0C492AAC0CC0654610CA354560301508A4C16A9563BFF5A92AB98C492AAB3
:2014E40098CC761AFE98FF690006FE0A974A9649901F0EA91E462D460201563B1E482901C7
:2014F4008F007C009249FFC4FF84560301A9560100A4A842023C07421E447622924A610600
:201504008A44064898C499CC6F068A440648FF55C0C4C1CC761AFE8AFF690006FE02964197
:201514007622761F01E49603761AFF69FE820006FE0296417622761F01E49604761AFF6913
:20152400FE820006FE0296417622761F01E49605761AFF69FE820006FE0296417622761F1B
:2015340001E4960C761AFF69FE820006FE0296417622761F01E4960D761AFF69FE82000688
:20154400762228A9FFFF28A87FFF761F01F21E0C761F01F302081E0C761F01F402201E0C8D
:201554003B01761F01F5FF29FFFF1E0C761AFF69000676228F3FFC1C761F01F0A80C28A9D9
:201564000E0028A8FC00761F01F11E0C28A943E728A81EF0761F01F21E0C761F01F30208BE
:201574001E0C761F01F402001E0C3B01761F01F5FF29FFFF1E0C761AFF690006FE02761FCD
:2015840017400608290118A907009100FF479641520560047648155D6F0652066004764868
:2015940015446F01FE820006FE049643FFC429018F007F00FF81560301A9560100A4A842AA
:2015A4009243901F2DA906C456221EA692A690019644FE840006FE0697469645FFC42901F3
:2015B4008F007F00FF81560301A9560100A4A84202011EA69245901F2DA906A6563B1E44DF
:2015C4009246600406441EE46F0306441ED4FE860006761BFFF00005ABBDA8BDA0BDC2BD19
:2015D400C3BDE20000BDE20300BDE20301BDE20302BDE20303BDE6300600FE04FF69294259
:2015E4005616761F140006181E446F7F9A0028A880001E42020176480FABFFEF00889A008F
:2015F40028A880001E42020176480FAB6F7F9A0028A880001E4202017648100A6F779A0019
:2016040028A880001E4202017648100A6F6F9A0028A880001E4202017648106D6F679A0065
:2016140028A880001E4202017648106D6F5F9A0028A880001E42020176480FD96F579A00A7
:2016240028A880001E42020176480FD96F4F9A0028A880001E4202017648103A6F479A00EA
:2016340028A880001E4202017648103A6F3F9A0028A880001E4202017648109A6F379A0038
:2016440028A880001E4202017648109A6F2F9A0028A880001E42020176480F846F279A00FF
:2016540028A880001E42020176480F846F1F9A0028A880001E420201764810CA6F17761FE4
:20166400038256BF01006F12BE111901C5440FA666F706A776C81D30FF301902560100A7C6
:2016740024A9DF0124A81EA77620761F003356BF0121FF20036E761F14000F1C6026020196
:201684009800990106001AA880001E0002019806990706061AA880001E06761F03820602D9
:20169400610876220602761F00381E08761A6F0D3B10761F00331822EFFFF6057700762FDC
:2016A400FFFE56BF01212910FE84E2AF03BEE2AF02BEE2AF01BEE2AF00BEE28000BEC5BE52
:2016B400C4BE83BE8ABE87BE00033B30FFF1761776027648066C7622761F174C1A22000463
:2016C4001A2E00011A2E0002761A7622FF6976481582761F174C1A3C00011A3C00021A3C91
:2016D40000041A3C00088F05D1B692C460098F007BDD761F1746A836A838A83AA83C761FC8
:2016E400174C183CFFFE183CFFFD183CFFFB183CFFF7761A9A01D400D5019B28FF6976488C
:2016F400067A7622761F174C1A2200081A2200101A2200201A2300011A2400011A2400021D
:20170400020F761F17431E2C1E2002031E268F070000A8321E248F000FFFA816023F1E1870
:2017140002071E1A02031E1E02071E2202FF1E2E761A7622761F1748182CFFF8761A3B106B
:2017240076260000762F0000FF69764819C0764819E8764811077648176B7622761F174309
:201734001816FFFE1816FFFD1816FFFB761AFF697648190B7622761F174C1A2600011A262D
:2017440000021A2600041823FFFB761AFF697648194576481A867622761F01F002001E0258
:201754001E04761F01F11E021E04761F01F21E021E04761F01F31E021E04761F01F41E024B
:201764001E04761F01F51E02761AFF6900068F000C00761F0381A8180200761F0030190145
:201774001E022B062B071A0400101A0400200200761F03811E1A8F000C08A8208F000C10FD
:20178400A828761F003019011E0A761F0030020019011E12761F00302B0E2B0F761F003060
:201794002B162B17761F00301A0C0010761F00301A140010761F00301A0C0020761F0030E4
:2017A4001A140020761F038102001E221E2A0006FE08E2030146E2030044A84206441EE49D
:2017B4008A4206461EF4E2AF0044E2AF0146E70000087700E68A00007700E20300488A42F8
:2017C4008AC4064819011ED48A428AC42BF48A428AC42BFC8A428AC41AE400108A428AC4A1
:2017D4001AE400208A428AC418E4FBFF8A428AC418E4F7FF8A428AC41AE440008A42020095
:2017E4001ED4FE880006FE06E2030144E2030042291002001E46761F0382FF2004250F04FE
:2017F400600E8F00036E761F0382A8A90F066107020107461E46A8A90F0660FB3B10E802D5
:201804004BA0E2AF01428F00E058FF69E8092000E3020844764817AC761F00301804FFEF44
:201814007622761F00358F081953A80C761A761F00331A22004076230001FF69FE8600063B
:20182400761F00301A04001000063B107622761F00331A220040761A2910FF690006FE024D
:201834002B413B109A00761F003346226C029A01964176221822FFBFF6057700762FFFFE8F
:2018440056BF0121761A2910FF69FE820006FE02964192416104764818296F03764818330D
:20185400FE820006761F0381923D0A3D5200610556BF013C0B3D6F0A7648182976480AC26B
:2018640076481833761F03810B3D0006FE04284237BD28413586E8021A40E2030044761F6E
:2018740003812B3E2B3F764810EE764816BD761F20728A1802001EC476480C3176481A5BD5
:20188400E2AF0042E2AF0144764817E7761F20728A18BE0006C46002BE01761F03817E3F97
:20189400764818297648193D76481A4F761F0381923F6111761F20728A18B600BE0006C497
:2018A4006002BE0192A66002B601761F03817F3E923F60F176480E1376481A5B9A00FE848C
:2018B400000628AD0122FF69561F5616561AE61002002940761F00002902761B76481A943F
:2018C40052006142762228A91C9C28A800080901611B76C81C9C29046F0F9B0024A9DF01A7
:2018D4006C04290424A8DF011EA6F7A1248606A781A109011EA724A96303FF5C3B0459A938
:2018E400DF010009FFEC28A9FFFF28A8FFFF090161058F3FFFFF76481A0E761A76481A9653
:2018F40028A9FFFF28A8FFFF0901610E76FFFFFF6F06DF01C3BD1EA73E67C5BE24A9DF01DC
:2019040024A8FF5860F776481A63764819997622761F1748CC26FFFC50019626761F01F092
:201914001820FFFCCC06FFFC500196061820FFF3CC06FFF3500496061820FFCFCC06FFCF42
:20192400501096061820FF3FCC06FF3F504096061820FCFFCC06FCFF1AA90100960618205D
:20193400F3FFCC06F3FF1AA904009606761AFF6900067622761F174C1A230004761AFF69B3
:2019440000067622761F01E51801E7FF1800FFF81800FFC71800FE3F761AFF690006761B9A
:20195400FFF00005ABBDA8BDA0BDC2BDC3BDE20000BDE20300BDE20301BDE20302BDE203E9
:2019640003BDE6300600FE02FF6929425616761F0033922296411822FFBFF6057700762FE6
:20197400FFFE56BF0121762300012910FF69764818563B109241761F00339622FE82E2AF09
:2019840003BEE2AF02BEE2AF01BEE2AF00BEE28000BEC5BEC4BE83BE8ABE87BE00033B3031
:20199400FFF17617760277006F00B2BD761F038259A99208610D28ABFFFF28AAFFFF28A953
:2019A400FFFF28A8FFFF0FAB6103767FFFFF761F0382C50E3E67761F0382060C61041EA75E
:2019B40092A13E67761F0382060A61031EA73E67764819978BBE00063B10761F003318203B
:2019C400FFFE2B222B242B262B282B2A2B2C2B2E2B302B322B342B362B382B232B252B27F6
:2019D4002B292B2B2B2D2B2F2B312B332B352B372B39FF690006761F00331A2000012821FD
:2019E400FFFF2910FF690006FE068F081AD8A8428F000D00A844020607421E42020607443B
:2019F4001E4476222B45924552DD670D83448A42A0A9C4840902A8421E44C2C50A459245C7
:201A040052DD68F5761A761F00331A200001FF69FE860006B2BDAABDA2BDFE0882A4D1007F
:201A14005ACB6F155CAD2901560303A107A3DC8809025CA483A9020876481A3206426106D1
:201A24008A44834676481A325ACBD90192A254A166EAFE8882BE86BE8BBE00065200A8AB8B
:201A3400C5A4610788A9DE815C857C87000EFFFE88A90FA6610F5300610D9DFF5CA876BF56
:201A4400FFFE92859687000EFFFE92859687000CFFF8A9A40006761F03829213600476081B
:201A5400293092BE0B13921363022B13000676083B3092BE761F03829001721300060200EC
:201A640028ABFFFF28AAFFFF19010FAB60049A00D4006F05A9A492C4A9A4DC027648186A99
:201A74000006761F0382A8100006761F0382A80E00060006561F7622B9C028290068761AC9
:201A8400004818B57622761F01E42B04761AFF6900069CFF56C80005C5A5F7A92484000678
:061A94009A0100060006A5
:201A98007622761F17E0CC1EFF005014961E1A2400011A200003761F17E61800FFFD1800CF
:201AA800FFFE761F17E0CC00F0FF1AA903009600761F17E61A0000021A000001761F17EC1D
:201AB800CC00FFF0500A9600761AF6077700FF6900067622761F17E0CC1EFF005014961ECC
:1E1AC8001820FFFC1824FFFE761AFF690006190156C3FFFF0006190156C3FFFF000628
:201AD800056800080568000805680008056800080568000805680008056800080568000846
:201AE800056800080568000805680008056800080568000800040008000E00080018000853
:201AF80000220008002C00080036000800400008004A000800540008005E00080068000866
:201B080000720008007C00080086000800900008009A000800A4000800AE000800B80008D5
:201B180000C2000800CC000800D6000800E0000800EA000800F4000800FE00080108000844
:201B280001120008011C00080126000801300008013A000801440008014E000801580008AD
:201B380001620008016C00080176000801800008018A000801940008019E000801A800081D
:201B480001B2000801BC000801C6000801D0000801DA000801E4000805680008056800089B
:201B580001EE000801F8000802020008056800080568000805680008056800080568000820
:201B6800020C00080216000802200008022A000802340008023E0008024800080252000895
:201B7800025C00080266000802700008027A000802840008028E0008056800080568000869
:201B88000298000802A2000802AC000802B6000802C0000802CA000802D4000802DE000815
:201B980002E8000802F2000802FC00080306000803100008031A000803240008032E000880
:201BA8000338000803420008034C00080356000803600008036A000803740008037E0008ED
:201BB8000388000803920008039C000803A6000803B0000803BA000803C4000803CE00085D
:201BC80003D8000803E2000803EC0008056800080568000803F6000804000008040A000829
:201BD8000568000805680008056800080568000804140008041E000804280008043200085D
:201BE800043C00080446000804500008045A000805680008056800080568000805680008AD
:201BF80004640008046E0008047800080482000805680008056800080568000805680008FD
:201C0800056800080568000805680008056800080568000805680008056800080568000814
:201C1800048C000804960008056800080568000805680008056800080568000805680008B4
:201C280004A0000804AA00080568000805680008056800080568000805680008056800087C
:201C38000568000805680008056800080568000805680008056800080568000805680008E4
:201C480005680008056800080568000805680008056800080568000804B400080568000889
:201C580005680008056800080568000805680008056800080568000804BE0008056800086F
:201C680004C8000804D2000804DC000804E6000804F0000804FA000805040008050E0008A2
:201C78000568000805680008056800080568000805680008056800080568000805680008A4
:201C88000518000805220008052C00080536000805400008054A000805540008055E0008FC
:041C9800E0700000F8
:201C9C00FFA8E00000000000000000003F8037BD35860000000000003F8037BD35860000C5
:201CAC00000000003F8037BD358600000000B7173851B1B938D100000000B7173851B1B91F
:201CBC0038D100000000B7173851B1B938D100630063006300000000424874BC3C9337BD8F
:201CCC0035860000000037BD35860000424874BC3C9337BD35860000000037BD35860000A7
:201CDC00424874BC3C9337BD35860000000037BD35860FDB40C90FDB40C90FDB40C9C80060
:201CEC00C800C800000000000000000000000000000100010001FFFEE082000000000000E6
:201CFC00FFFEE084000000000000FFFEE086000000000000FFFFE08800000001FFFEE08A36
:201D0C00000000000000FFFEE08C000000000000FFFFE07C00000000FFFFE07D0000000099
:201D1C00FFFEE08E00001A7D0008FFFEE09000001A7D0008FFFFE09200000000FFFFE093B0
:081D2C000000000000000000AF
:201D300015EA000815F3000815FB000816030008160B000816130008164B0008165300080F
:201D4000161B000816230008162B000816330008163B0008164300081663000816630008B3
:201D500016630008165B000811F0000811F5000811FA000811FF00081204000812090008F6
:201D6000120E00081213000812180008121D00081222000812270008122C00081231000897
:201D70003B022904565F1EAC0644565F560500A9566300A928AC0009565BA9A95632290272
:021D800000065B
:00000001FF
